{
  "_format": "hh-sol-artifact-1",
  "contractName": "AMZEToken",
  "sourceName": "contracts/AMZEToken.sol",
  "abi": [
    {
      "inputs": [],
      "stateMutability": "nonpayable",
      "type": "constructor"
    },
    {
      "anonymous": false,
      "inputs": [
        {
          "indexed": true,
          "internalType": "address",
          "name": "owner",
          "type": "address"
        },
        {
          "indexed": true,
          "internalType": "address",
          "name": "spender",
          "type": "address"
        },
        {
          "indexed": false,
          "internalType": "uint256",
          "name": "value",
          "type": "uint256"
        }
      ],
      "name": "Approval",
      "type": "event"
    },
    {
      "anonymous": false,
      "inputs": [
        {
          "indexed": true,
          "internalType": "address",
          "name": "previousOwner",
          "type": "address"
        },
        {
          "indexed": true,
          "internalType": "address",
          "name": "newOwner",
          "type": "address"
        }
      ],
      "name": "OwnershipTransferred",
      "type": "event"
    },
    {
      "anonymous": false,
      "inputs": [
        {
          "indexed": true,
          "internalType": "address",
          "name": "from",
          "type": "address"
        },
        {
          "indexed": true,
          "internalType": "address",
          "name": "to",
          "type": "address"
        },
        {
          "indexed": false,
          "internalType": "uint256",
          "name": "value",
          "type": "uint256"
        }
      ],
      "name": "Transfer",
      "type": "event"
    },
    {
      "inputs": [
        {
          "internalType": "address",
          "name": "owner",
          "type": "address"
        },
        {
          "internalType": "address",
          "name": "spender",
          "type": "address"
        }
      ],
      "name": "allowance",
      "outputs": [
        {
          "internalType": "uint256",
          "name": "",
          "type": "uint256"
        }
      ],
      "stateMutability": "view",
      "type": "function"
    },
    {
      "inputs": [
        {
          "internalType": "address",
          "name": "spender",
          "type": "address"
        },
        {
          "internalType": "uint256",
          "name": "amount",
          "type": "uint256"
        }
      ],
      "name": "approve",
      "outputs": [
        {
          "internalType": "bool",
          "name": "",
          "type": "bool"
        }
      ],
      "stateMutability": "nonpayable",
      "type": "function"
    },
    {
      "inputs": [
        {
          "internalType": "address",
          "name": "account",
          "type": "address"
        }
      ],
      "name": "balanceOf",
      "outputs": [
        {
          "internalType": "uint256",
          "name": "",
          "type": "uint256"
        }
      ],
      "stateMutability": "view",
      "type": "function"
    },
    {
      "inputs": [],
      "name": "decimals",
      "outputs": [
        {
          "internalType": "uint8",
          "name": "",
          "type": "uint8"
        }
      ],
      "stateMutability": "view",
      "type": "function"
    },
    {
      "inputs": [
        {
          "internalType": "address",
          "name": "spender",
          "type": "address"
        },
        {
          "internalType": "uint256",
          "name": "subtractedValue",
          "type": "uint256"
        }
      ],
      "name": "decreaseAllowance",
      "outputs": [
        {
          "internalType": "bool",
          "name": "",
          "type": "bool"
        }
      ],
      "stateMutability": "nonpayable",
      "type": "function"
    },
    {
      "inputs": [],
      "name": "getOwner",
      "outputs": [
        {
          "internalType": "address",
          "name": "",
          "type": "address"
        }
      ],
      "stateMutability": "view",
      "type": "function"
    },
    {
      "inputs": [
        {
          "internalType": "address",
          "name": "spender",
          "type": "address"
        },
        {
          "internalType": "uint256",
          "name": "addedValue",
          "type": "uint256"
        }
      ],
      "name": "increaseAllowance",
      "outputs": [
        {
          "internalType": "bool",
          "name": "",
          "type": "bool"
        }
      ],
      "stateMutability": "nonpayable",
      "type": "function"
    },
    {
      "inputs": [],
      "name": "name",
      "outputs": [
        {
          "internalType": "string",
          "name": "",
          "type": "string"
        }
      ],
      "stateMutability": "view",
      "type": "function"
    },
    {
      "inputs": [],
      "name": "owner",
      "outputs": [
        {
          "internalType": "address",
          "name": "",
          "type": "address"
        }
      ],
      "stateMutability": "view",
      "type": "function"
    },
    {
      "inputs": [],
      "name": "renounceOwnership",
      "outputs": [],
      "stateMutability": "nonpayable",
      "type": "function"
    },
    {
      "inputs": [],
      "name": "symbol",
      "outputs": [
        {
          "internalType": "string",
          "name": "",
          "type": "string"
        }
      ],
      "stateMutability": "view",
      "type": "function"
    },
    {
      "inputs": [],
      "name": "totalSupply",
      "outputs": [
        {
          "internalType": "uint256",
          "name": "",
          "type": "uint256"
        }
      ],
      "stateMutability": "view",
      "type": "function"
    },
    {
      "inputs": [
        {
          "internalType": "address",
          "name": "recipient",
          "type": "address"
        },
        {
          "internalType": "uint256",
          "name": "amount",
          "type": "uint256"
        }
      ],
      "name": "transfer",
      "outputs": [
        {
          "internalType": "bool",
          "name": "",
          "type": "bool"
        }
      ],
      "stateMutability": "nonpayable",
      "type": "function"
    },
    {
      "inputs": [
        {
          "internalType": "address",
          "name": "sender",
          "type": "address"
        },
        {
          "internalType": "address",
          "name": "recipient",
          "type": "address"
        },
        {
          "internalType": "uint256",
          "name": "amount",
          "type": "uint256"
        }
      ],
      "name": "transferFrom",
      "outputs": [
        {
          "internalType": "bool",
          "name": "",
          "type": "bool"
        }
      ],
      "stateMutability": "nonpayable",
      "type": "function"
    },
    {
      "inputs": [
        {
          "internalType": "address",
          "name": "newOwner",
          "type": "address"
        }
      ],
      "name": "transferOwnership",
      "outputs": [],
      "stateMutability": "nonpayable",
      "type": "function"
    }
  ],
  "bytecode": "0x608060405234801561001057600080fd5b50600061001b610129565b600080546001600160a01b0319166001600160a01b0383169081178255604051929350917f8be0079c531659141344cd1fd0a4f28419497f9722a3daafe3b4186f6b6457e0908290a35060408051808201909152600e8082526d151a19481514d5114815dbdc9b1960921b602090920191825261009a9160069161012d565b50604080518082019091526004808252635453544560e01b60209092019182526100c69160059161012d565b506004805460ff19169055630d693a406003819055336000818152600160209081526040808320859055805194855251929391927fddf252ad1be2c89b69c2b068fc378daa952ba7f163c4a11628f55a4df523b3ef9281900390910190a36101c0565b3390565b828054600181600116156101000203166002900490600052602060002090601f016020900481019282601f1061016e57805160ff191683800117855561019b565b8280016001018555821561019b579182015b8281111561019b578251825591602001919060010190610180565b506101a79291506101ab565b5090565b5b808211156101a757600081556001016101ac565b610c93806101cf6000396000f3fe608060405234801561001057600080fd5b50600436106100f55760003560e01c8063715018a611610097578063a457c2d711610066578063a457c2d7146102b5578063a9059cbb146102e1578063dd62ed3e1461030d578063f2fde38b1461033b576100f5565b8063715018a614610277578063893d20e8146102815780638da5cb5b146102a557806395d89b41146102ad576100f5565b806323b872dd116100d357806323b872dd146101d1578063313ce56714610207578063395093511461022557806370a0823114610251576100f5565b806306fdde03146100fa578063095ea7b31461017757806318160ddd146101b7575b600080fd5b610102610361565b6040805160208082528351818301528351919283929083019185019080838360005b8381101561013c578181015183820152602001610124565b50505050905090810190601f1680156101695780820380516001836020036101000a031916815260200191505b509250505060405180910390f35b6101a36004803603604081101561018d57600080fd5b506001600160a01b0381351690602001356103f7565b604080519115158252519081900360200190f35b6101bf610414565b60408051918252519081900360200190f35b6101a3600480360360608110156101e757600080fd5b506001600160a01b0381358116916020810135909116906040013561041a565b61020f6104a1565b6040805160ff9092168252519081900360200190f35b6101a36004803603604081101561023b57600080fd5b506001600160a01b0381351690602001356104aa565b6101bf6004803603602081101561026757600080fd5b50356001600160a01b03166104f8565b61027f610513565b005b6102896105c7565b604080516001600160a01b039092168252519081900360200190f35b6102896105d6565b6101026105e5565b6101a3600480360360408110156102cb57600080fd5b506001600160a01b038135169060200135610646565b6101a3600480360360408110156102f757600080fd5b506001600160a01b0381351690602001356106ae565b6101bf6004803603604081101561032357600080fd5b506001600160a01b03813581169160200135166106c2565b61027f6004803603602081101561035157600080fd5b50356001600160a01b03166106ed565b60068054604080516020601f60026000196101006001881615020190951694909404938401819004810282018101909252828152606093909290918301828280156103ed5780601f106103c2576101008083540402835291602001916103ed565b820191906000526020600020905b8154815290600101906020018083116103d057829003601f168201915b5050505050905090565b600061040b610404610763565b8484610767565b50600192915050565b60035490565b6000610427848484610853565b61049784610433610763565b61049285604051806060016040528060278152602001610bf1602791396001600160a01b038a16600090815260026020526040812090610471610763565b6001600160a01b0316815260208101919091526040016000205491906109a5565b610767565b5060019392505050565b60045460ff1690565b600061040b6104b7610763565b8461049285600260006104c8610763565b6001600160a01b03908116825260208083019390935260409182016000908120918c168152925290205490610a3c565b6001600160a01b031660009081526001602052604090205490565b61051b610763565b6000546001600160a01b0390811691161461057d576040805162461bcd60e51b815260206004820181905260248201527f4f776e61626c653a2063616c6c6572206973206e6f7420746865206f776e6572604482015290519081900360640190fd5b600080546040516001600160a01b03909116907f8be0079c531659141344cd1fd0a4f28419497f9722a3daafe3b4186f6b6457e0908390a3600080546001600160a01b0319169055565b60006105d16105d6565b905090565b6000546001600160a01b031690565b60058054604080516020601f60026000196101006001881615020190951694909404938401819004810282018101909252828152606093909290918301828280156103ed5780601f106103c2576101008083540402835291602001916103ed565b600061040b610653610763565b8461049285604051806060016040528060248152602001610bcd602491396002600061067d610763565b6001600160a01b03908116825260208083019390935260409182016000908120918d168152925290205491906109a5565b600061040b6106bb610763565b8484610853565b6001600160a01b03918216600090815260026020908152604080832093909416825291909152205490565b6106f5610763565b6000546001600160a01b03908116911614610757576040805162461bcd60e51b815260206004820181905260248201527f4f776e61626c653a2063616c6c6572206973206e6f7420746865206f776e6572604482015290519081900360640190fd5b61076081610a9d565b50565b3390565b6001600160a01b0383166107ac5760405162461bcd60e51b8152600401808060200182810382526023815260200180610b856023913960400191505060405180910390fd5b6001600160a01b0382166107f15760405162461bcd60e51b8152600401808060200182810382526021815260200180610b3e6021913960400191505060405180910390fd5b6001600160a01b03808416600081815260026020908152604080832094871680845294825291829020859055815185815291517f8c5be1e5ebec7d5bd14f71427d1e84f3dd0314c0f7b2291e5b200ac8c7c3b9259281900390910190a3505050565b6001600160a01b0383166108985760405162461bcd60e51b8152600401808060200182810382526024815260200180610c3a6024913960400191505060405180910390fd5b6001600160a01b0382166108dd5760405162461bcd60e51b8152600401808060200182810382526022815260200180610c186022913960400191505060405180910390fd5b61091a81604051806060016040528060258152602001610ba8602591396001600160a01b03861660009081526001602052604090205491906109a5565b6001600160a01b0380851660009081526001602052604080822093909355908416815220546109499082610a3c565b6001600160a01b0380841660008181526001602090815260409182902094909455805185815290519193928716927fddf252ad1be2c89b69c2b068fc378daa952ba7f163c4a11628f55a4df523b3ef92918290030190a3505050565b60008184841115610a345760405162461bcd60e51b81526004018080602001828103825283818151815260200191508051906020019080838360005b838110156109f95781810151838201526020016109e1565b50505050905090810190601f168015610a265780820380516001836020036101000a031916815260200191505b509250505060405180910390fd5b505050900390565b600082820183811015610a96576040805162461bcd60e51b815260206004820152601b60248201527f536166654d6174683a206164646974696f6e206f766572666c6f770000000000604482015290519081900360640190fd5b9392505050565b6001600160a01b038116610ae25760405162461bcd60e51b8152600401808060200182810382526026815260200180610b5f6026913960400191505060405180910390fd5b600080546040516001600160a01b03808516939216917f8be0079c531659141344cd1fd0a4f28419497f9722a3daafe3b4186f6b6457e091a3600080546001600160a01b0319166001600160a01b039290921691909117905556fe414d5a453a20617070726f766520746f20746865207a65726f20616464726573734f776e61626c653a206e6577206f776e657220697320746865207a65726f2061646472657373414d5a453a20617070726f76652066726f6d20746865207a65726f2061646472657373414d5a453a207472616e7366657220616d6f756e7420657863656564732062616c616e6365414d5a453a2064656372656173656420616c6c6f77616e63652062656c6f77207a65726f414d5a453a207472616e7366657220616d6f756e74206578636565647320616c6c6f77616e6365414d5a453a207472616e7366657220746f20746865207a65726f2061646472657373414d5a453a207472616e736665722066726f6d20746865207a65726f2061646472657373a2646970667358221220910e21b4324197e8ed611672ef77a8984820c4593c9dddab22286bf998b8997364736f6c63430007030033",
  "linkReferences": {},
  "deployedLinkReferences": {}
}